:100000000C9424000C9441000C9441000C94410089
:100010000C9441000C9441000C9441000C9441005C
:100020000C9441000C9441000C9441000C9441004C
:100030000C9441000C9441000C9441000C9441003C
:100040000C9441000C94410011241FBECFE5D4E074
:10005000DEBFCDBF10E0A0E6B0E0E6E2FDE002C00A
:1000600005900D92AA39B107D9F711E0AAE9B0E0DD
:1000700001C01D92AB33B107E1F70E9443000C941D
:1000800091060C9400000F931F9384EF90E09093DF
:10009000F1008093F0002AEC30E03093F3002093DD
:1000A000F2000E9499018091F2009091F3000E9469
:1000B000A2010E944F0202E017E68091F0009091A9
:1000C000F1000E947C02E091F200F091F300813097
:1000D00059F08091F40080838091F5008183028340
:1000E00015821383148207C08091F0009091F10073
:1000F000BF010E9499008091F2009091F3000E944C
:10010000C4018091F0009091F1000E9499018091CA
:10011000F2009091F3000E94A201CFCFFC018781F1
:10012000861729F48085841711F481E008958FEFF4
:100130000895FC01DB0180818C93818111968C9361
:1001400011978181813C71F480818C9381EE1196AD
:100150008C93119781E012968C9312978381169657
:100160008C9308958381803809F053C08481803551
:1001700021F1813530F4803459F0823409F045C0E2
:1001800012C0803671F18136B1F18235F1F51FC0B0
:100190008781803109F041C080858031F1F5CF0140
:1001A0000E940C04089587818031B9F580858031E3
:1001B000A1F5CF010E94E50308958781803169F59B
:1001C0008085803151F5CF010E94BE03089587815B
:1001D000803119F58085803101F5CF010E949703A8
:1001E000089587818830C9F480858830B1F4CF01C3
:1001F0000E94700308958781823179F48085883068
:1002000061F4CF010E9449030895CD010E94B40119
:100210000895CB010E94AC010895CD010E94BC015C
:10022000089565E16A95F1F7089569E7FBCF7F933B
:100230006F935F934F9361E060933A01BE98C698C5
:10024000B699FECFB699FCCF882799276FE1EADFF0
:1002500022D0000059E0442762E400000000E2DF01
:100260001AD0470F889470FD0894879561E45A95D9
:10027000B1F7881F40FD08C06CE4D4DF99274F9187
:100280005F916F917F9108956CE4CCDFBE9AC69820
:1002900066EBC8DFD3CF77278894B6990894791F87
:1002A000C0DF8894B6990894791FBBDF8894B6990B
:1002B0000894791F769508956F937F9360913A0122
:1002C000662329F0B2DFB1DF60E060933A01C69A9D
:1002D000BE9AC69867E7A6DF98E07727879510F063
:1002E000C69802C0C69A739566E79CDF00009A958F
:1002F000A9F770FD04C000000000C69804C000000B
:10030000C69A0000000060E78DDFC69A67E78ADFC3
:10031000BE98C6988894B699089430F08795B69997
:10032000FECF6AE37FDFD3CF64E77CDF7F916F91FD
:100330000895FC01108211821282108617821382A6
:1003400014820895FC011082118282E0828315825A
:1003500084E6838314820895FC0182E082831582FF
:100360008EE6838314820895FC0182E082831582E5
:1003700088E6838314820895FC0182E082831582DB
:100380008AE6838314820895CF92DF92FF920F93BF
:100390001F93DF93CF93CDB7DEB7C654D0400FB6CF
:1003A000F894DEBF0FBECDBF8C01DC0111962C91FD
:1003B00011973C9112964C91129727FF1BC03983DD
:1003C0002A834B8316968C918C83132F1227142724
:1003D00018271D83832F0E945C018A810E945C0183
:1003E0008B810E945C018C810E945C01812F0E94A4
:1003F0005C0146C039832A834B83632F62276427BD
:10040000FC018581A80194E0C92ED12CCC0EDD1E03
:10041000A82FB0E09E012A0F3B1F2C5F3F4F06C064
:10042000FA018581F60181936F0168274F5F5F4F65
:10043000C216D306A9F7F8019381FE01EA0FFB1F4C
:100440009483F8018481FE01EA0FFB1F85838927CD
:1004500086278683FF246E010894C11CD11C06C028
:10046000EC0DFD1D80810E945C01F394EF2DF0E006
:10047000D80112968C9190E003968E179F0784F70F
:10048000CA5BDF4F0FB6F894DEBF0FBECDBFCF9172
:10049000DF911F910F91FF90DF90CF9008951F93F0
:1004A000CF93DF931BE3C6E6D0E0FE0181911827CE
:1004B00080E0E037F807D1F78BE30E945C018AEB1C
:1004C0000E945C0181E10E945C0180E00E945C016D
:1004D00081E10E945C0181E80E945C0189910E9497
:1004E0005C0180E0C037D807C9F7812F0E945C010A
:1004F000DF91CF911F9108957F928F929F92AF923B
:10050000BF92CF92DF92EF92FF920F931F93DF93F0
:10051000CF93CDB7DEB7C654D0400FB6F894DEBF48
:100520000FBECDBF8C010E941701782E0E941701CB
:10053000882E0E941701982E7E010894E11CF11C60
:1005400067015701A80EB11C05C00E941701D60112
:100550008D936D01CA14DB04C1F70E941701682F47
:10056000F801708281829282982D9725992504C086
:10057000D7018D917D019827EC14FD04C9F789817D
:10058000F80183838A8184838B8185838C81868330
:100590008281853019F48D8180872EC0863060F18C
:1005A0008D81D80117968C9326E0E22EF12CEC0E6B
:1005B000FD1EF80140E050E006C0D7018D917D019D
:1005C00080874F5F5F4FD80117968C911797282F20
:1005D00030E031964217530784F312968C911297AC
:1005E000E82FF0E02B5F3F4F2E173F072CF4EC0F66
:1005F000FD1F808118968C93961711F481E001C03D
:100600008FEFCA5BDF4F0FB6F894DEBF0FBECDBFD2
:10061000CF91DF911F910F91FF90EF90DF90CF90DE
:10062000BF90AF909F908F907F900895CF93DF936E
:10063000EC0190E00BC0E92FF0E0DE01AE0FBF1F30
:1006400019968C91E656FF4F80839F5F8885981797
:1006500090F3DF91CF910895CF93DF93EC016E5F1C
:100660006A8362506D8380E98B831C8290E00BC0AB
:10067000E92FF0E0DE01AE0FBF1FE654FF4F80818F
:1006800016968C939F5F8D81981790F3DF91CF9191
:1006900008950F931F93CF93DF93EC018B0190E0AC
:1006A0000BC0E92FF0E0DE01AE0FBF1F19968C9151
:1006B000E656FF4F80839F5F8885981790F38AE9FD
:1006C00090E06AEB70E042EA50E00E94F005C80159
:1006D00068E00E942C03DF91CF911F910F91089544
:1006E0000F931F93CF93DF93EC018B0190E00BC02E
:1006F000E92FF0E0DE01AE0FBF1F19968C91E65690
:10070000FF4F80839F5F8885981790F38AE990E078
:100710006AEB70E040E050E00E94F005C80168E03C
:100720000E942C03DF91CF911F910F9108950F9399
:100730001F93CF93DF93EC018B0190E00BC0E92F67
:10074000F0E0DE01AE0FBF1F19968C91E656FF4F09
:1007500080839F5F8885981790F38AE990E06AEB21
:1007600070E040E750E00E94BB04C80160E10E94D5
:100770002C03DF91CF911F910F9108950F931F9339
:10078000CF93DF93EC018B0190E00BC0E92FF0E0F9
:10079000DE01AE0FBF1F19968C91E656FF4F808386
:1007A0009F5F8885981790F38AE990E06AEB70E084
:1007B00040E750E00E947A04C80160E10E942C03E7
:1007C000DF91CF911F910F9108950F931F93CF93B6
:1007D000DF93EC018B0190E00BC0E92FF0E0DE012C
:1007E000AE0FBF1F19968C91E656FF4F80839F5F17
:1007F0008885981790F38AE990E06AEB70E040E70B
:1008000050E00E945904C80160E10E942C03DF916E
:10081000CF911F910F9108950F931F93CF93DF9363
:10082000EC018B0190E00BC0E92FF0E0DE01AE0F90
:10083000BF1F19968C91E656FF4F80839F5F888576
:10084000981790F38AE990E06AEB70E040E750E097
:100850000E943304C80160E10E942C03DF91CF9114
:100860001F910F9108950F931F93CF93DF938C01E6
:1008700087B3806A87BB88B3806A88BBEB0120E0BE
:1008800030E0FA01E20FF31FD801A20FB31F8081FD
:100890009C9189278F872F5F3F4F2197203131050A
:1008A00081F788B38F7588BBDF91CF911F910F912E
:1008B0000895CF93DF9327B3206A27BB28B3206A1C
:1008C00028BBEC0120E030E0DB01A20FB31FFA01EE
:1008D000E20FF31F80819F8589278C932F5F3F4F05
:1008E00021972031310581F788B38F7588BBDF915F
:1008F000CF9108952F923F924F925F926F927F9285
:100900008F929F92AF92BF92CF92DF92EF92FF921F
:100910000F931F93CF93DF93EF93FF93B92FA82FDC
:10092000D72FC62FF52FE42FBD9ABF9AC59AC79A25
:1009300000E11127C00FD11F20E10D911191012776
:100940000A932A95D1F7C598C798FF91EF91DF9147
:10095000CF911F910F91FF90EF90DF90CF90BF90BC
:10096000AF909F908F907F906F905F904F903F904F
:100970002F90112408952F923F924F925F926F9281
:100980007F928F929F92AF92BF92CF92DF92EF921F
:10099000FF920F931F93CF93DF93EF93FF93A82FB3
:1009A000B92FC62FD72FE42FF52FBD9ABF9AC59A1E
:1009B000C79A00E11127A00FB11F20E10E911191FC
:1009C000012709932A95D1F7C598C798FF91EF9110
:1009D000DF91CF911F910F91FF90EF90DF90CF901B
:1009E000BF90AF909F908F907F906F905F904F904F
:1009F0003F902F9011240895DC01FB0120E08C91A1
:100A0000928189278D932F5F31962830C1F7089501
:100A1000CF93DF93EC0120E0A881EA2FF0E0EF70A4
:100A2000F070E657FF4F9081A295AF70B0E0A657E7
:100A3000BF4F8C918295807F9F70892B89932F5F08
:100A4000283051F7DF91CF910895CF92DF92EF9246
:100A5000FF920F931F93DF93CF93CDB7DEB7289705
:100A60000FB6F894DEBF0FBECDBF7C01FE013196FC
:100A7000CE0109961192E817F907E1F740E000E08E
:100A800010E06E010894C11CD11C4F3311F43FE3F8
:100A90000FC0C8016FE370E00E946A0690E0880F03
:100AA000991F880F991F6FE370E00E946A06382F24
:100AB000842F869586958695F701E80FF11D808134
:100AC00090E0242F277002C0959587952A95E2F72C
:100AD0008170232F277001C0880F2A95EAF7369579
:100AE00036953695F601E30FF11D2081822B808328
:100AF0004F5F0C5F1F4F403441F620E030E0AE0105
:100B00004F5F5F4FF701E20FF31FDA01A20FB31F30
:100B10008C9180832F5F3F4F2830310599F72896BD
:100B20000FB6F894DEBF0FBECDBFCF91DF911F91FE
:100B30000F91FF90EF90DF90CF900895CF93DF93C8
:100B4000DC013C9111962C911197EC01FC0190E095
:100B5000828181939F5F9830D9F718963C931897BC
:100B600019962C9319973C9120E099819295990FB1
:100B7000907E8881869586958695982B99932F5F90
:100B8000293099F7932F9295990F907E19968C9111
:100B90001997869586958695982BE92FE295EF70A3
:100BA000F0E0E657FF4F80818295807F9F70892B10
:100BB00019968C9319976F5F60FF07C011968C91FF
:100BC0001197805811968C93119766956F701296B5
:100BD0008C911297862712968C93DF91CF9108956E
:100BE000BF92CF92DF92EF92FF920F931F93DF930A
:100BF000CF93CDB7DEB764970FB6F894DEBF0FBEC4
:100C0000CDBFE62EB72E27B3206A27BB28B3206AB4
:100C100028BBDC01FE013B969E012D5E3F4F1796DF
:100C20008C91179781931197E217F307C1F741153C
:100C3000510511F440E850E0DA01FE0131969E01C1
:100C4000255F3F4F19968C91199781931197E21761
:100C5000F307C1F7FF248E01055F1F4F6E01089453
:100C6000C11CD11CC801B6010E94FC04C8010E942D
:100C70000805C8010E942505C6016F2D0E949E052A
:100C8000F3948FE1F81671F7C801B6010E94FC04D5
:100C9000FE0172968E2D9B2D9C01D9019E01265F2F
:100CA0003F4F80818D933197E217F307D1F788B3D7
:100CB0008F7588BB64960FB6F894DEBF0FBECDBFAC
:100CC000CF91DF911F910F91FF90EF90DF90CF9028
:100CD000BF90089597FB092E07260AD077FD04D010
:100CE0000CD006D000201AF4709561957F4F0895BE
:100CF000F6F7909581959F4F0895AA1BBB1B51E174
:100D000007C0AA1FBB1FA617B70710F0A61BB70B7B
:100D1000881F991F5A95A9F780959095BC01CD0120
:060D20000895F894FFCFD6
:100D26003BBA110011812A4649545F435655542A4D
:100D36000000000000000000111111111111111125
:100D4600001122334455667788990C05060B090075
:0A0D56000A0D030E0F080407010246
:00000001FF
