:100000000C9424000C9441000C9441000C94410089
:100010000C9441000C9441000C9441000C9441005C
:100020000C9441000C9441000C9441000C9441004C
:100030000C9441000C9441000C9441000C9441003C
:100040000C9441000C94410011241FBECFE5D4E074
:10005000DEBFCDBF10E0A0E6B0E0E2EAFAE002C009
:1000600005900D92A038B107D9F711E0A0E8B0E0F3
:1000700001C01D92A436B107E1F70E9443000C9421
:100080004F050C940000BF92CF92DF92EF92FF9247
:100090000F931F938AE091E09093070180930601EC
:1000A00020EE30E030930901209308010E94EA011C
:1000B00080910801909109010E94F3010E94AA0217
:1000C00042E0B42E16E630E1C32E20E2D22E92E4B6
:1000D000E92E8AE6F82E07E8809106019091070143
:1000E0000E94D702982FE0910801F091090188231E
:1000F000D9F080910A01808380910B018183B282C3
:100100001582923029F0933031F0913051F406C0CD
:100110001383C48210C01383D4820DC0F38204837E
:100120000AC0E382148207C0809106019091070102
:10013000BF010E94CC0080910801909109010E94AA
:100140001F0280910601909107010E94EA018091AF
:100150000801909109010E94F301BECFFC01858145
:10016000861711F021E007C020E08681841709F48A
:1001700021E081E02827822F0895FC0187818617DE
:1001800011F021E007C020E08085841709F421E008
:1001900081E02827822F0895FC01DB0180818C9368
:1001A000818111968C9311978181813C71F48081BA
:1001B0008C9381EE11968C93119781E012968C931B
:1001C0001297838116968C9308958381803809F065
:1001D0006DC084818035B1F1813530F4803451F0C7
:1001E000823409F05FC01AC08235E1F1803609F02F
:1001F00059C048C08581882309F05CC08681882366
:1002000009F058C08781803109F058C0808580315D
:1002100009F054C0CF010E945504089585818823B8
:1002200009F048C08681882309F044C08781803165
:1002300009F044C08085803109F040C0CF010E94A0
:100240002E04089585818823A9F58681882391F558
:100250008781803199F58085803181F5CF010E94B9
:10026000070408958581882329F58681882311F55F
:100270008781803119F58085803101F5CF010E9499
:10028000E003089585818823A9F48681882391F469
:100290008781803199F48085803181F4CF010E947B
:1002A000B9030895CD010E9406020895CB010E9472
:1002B000FE010895CD010E9416020895CD010E940D
:1002C0000E02089565E16A95F1F7089569E7FBCF9D
:1002D0007F936F935F934F9361E060935301BE9858
:1002E000C698B699FECFB699FCCF882799276FE1BB
:1002F000EADF22D0000059E0442762E40000000059
:10030000E2DF1AD0470F889470FD0894879561E466
:100310005A95B1F7881F40FD08C06CE4D4DF9927D7
:100320004F915F916F917F9108956CE4CCDFBE9AFD
:10033000C69866EBC8DFD3CF77278894B699089420
:10034000791FC0DF8894B6990894791FBBDF889421
:10035000B6990894791F769508956F937F9360916D
:100360005301662329F0B2DFB1DF60E060935301EF
:10037000C69ABE9AC69867E7A6DF98E07727879562
:1003800010F0C69802C0C69A739566E79CDF00001D
:100390009A95A9F770FD04C000000000C69804C03B
:1003A0000000C69A0000000060E78DDFC69A67E78C
:1003B0008ADFBE98C6988894B699089430F08795DD
:1003C000B699FECF6AE37FDFD3CF64E77CDF7F910E
:1003D0006F910895FC01108211821282108617829B
:1003E000138214820895FC011082118282E08283BC
:1003F000158282E6838386E884830895FC0182E087
:10040000828315828EE6838314820895FC0182E044
:10041000828315828DE6838314820895FC0182E035
:100420008283158287E6838314820895FC0182E02B
:10043000828315828AE6838380E884830895CF923D
:10044000DF92FF920F931F93DF93CF93CDB7DEB769
:10045000C954D0400FB6F894DEBF0FBECDBF8C019B
:10046000DC0111962C9111973C9112964C911297A8
:1004700027FF1BC039832A834B8316968C918C836C
:10048000132F1227142718271D83832F0E94AD01D5
:100490008A810E94AD018B810E94AD018C810E94F6
:1004A000AD01812F0E94AD0146C039832A834B8361
:1004B000632F62276427FC018581A80194E0C92E7F
:1004C000D12CCC0EDD1EA82FB0E09E012A0F3B1FC1
:1004D0002C5F3F4F06C0FA018581F60181936F01C1
:1004E00068274F5F5F4FC216D306A9F7F8019381C3
:1004F000FE01EA0FFB1F9483F8018481FE01EA0FDD
:10050000FB1F8583892786278683FF246E01089435
:10051000C11CD11C06C0EC0DFD1D80810E94AD01E7
:10052000F394EF2DF0E0D80112968C9190E00396B1
:100530008E179F0784F7C75BDF4F0FB6F894DEBFB7
:100540000FBECDBFCF91DF911F910F91FF90DF9034
:10055000CF9008951F93CF93DF931BE3C6E6D0E0BF
:10056000FE018191182780E0E037F807D1F78BE38F
:100570000E94AD018AEB0E94AD0181E10E94AD01B4
:1005800080E00E94AD0181E10E94AD0181E80E94FE
:10059000AD0189910E94AD0180E0C037D807C9F74D
:1005A000812F0E94AD01DF91CF911F9108957F921D
:1005B0008F929F92AF92BF92CF92DF92EF92FF9273
:1005C0000F931F93DF93CF93CDB7DEB7C954D040BD
:1005D0000FB6F894DEBF0FBECDBF8C010E9468013C
:1005E000782E0E946801882E0E946801982E89E466
:1005F000891528F400E010E0E92CFF240DC07E01ED
:100600000894E11CF11C67015701A90CB11C0EC034
:100610000E9468010F5F1F4F0E151F05CCF382E08B
:1006200060C00E946801D6018D936D01CA14DB047D
:10063000C1F70E946801682FF8017082818292825E
:10064000982D9725992504C0D7018D917D01982774
:10065000EC14FD04C9F78981F80183838A818483BE
:100660008B8185838C8186838281853019F48D818D
:1006700080872EC0863060F18D81D80117968C93CB
:1006800026E0E22EF12CEC0EFD1EF80140E050E0D9
:1006900006C0D7018D917D0180874F5F5F4FD801E4
:1006A00017968C911797282F30E0319642175307F1
:1006B00084F312968C911297E82FF0E02B5F3F4F56
:1006C0002E173F072CF4EC0FFD1F808118968C939A
:1006D000F8018085813210F083E003C080E096133A
:1006E00081E0C75BDF4F0FB6F894DEBF0FBECDBF12
:1006F000CF91DF911F910F91FF90EF90DF90CF90FE
:10070000BF90AF909F908F907F900895CF93DF938D
:10071000EC0190E00BC0E92FF0E0DE01AE0FBF1F4F
:1007200019968C91E058FF4F80839F5F8F819817B7
:1007300090F3DF91CF910895CF93DF93EC016E5F3B
:100740006A8362506D8380E98B831C8290E00BC0CA
:10075000E92FF0E0DE01AE0FBF1FE054FF4F8081B4
:1007600016968C939F5F8D81981790F3DF91CF91B0
:1007700008950F931F93CF93DF93EC018B0190E0CB
:100780000BC0E92FF0E0DE01AE0FBF1F19968C9170
:10079000E058FF4F80839F5F8F81981790F380E828
:1007A00090E060EC70E040E750E00E944505C80131
:1007B00060E10E949C03DF91CF911F910F910895FA
:1007C0000F931F93CF93DF93EC018B0190E00BC04D
:1007D000E92FF0E0DE01AE0FBF1F19968C91E058B3
:1007E000FF4F80839F5F8F81981790F380E890E0A0
:1007F00060EC70E040E750E00E940405C80160E151
:100800000E949C03DF91CF911F910F9108950F9348
:100810001F93CF93DF93EC018B0190E00BC0E92F86
:10082000F0E0DE01AE0FBF1F19968C91E058FF4F2C
:1008300080839F5F8F81981790F380E890E060EC51
:1008400070E040E750E00E94C304C80160E10E94EC
:100850009C03DF91CF911F910F9108950F931F93E8
:10086000CF93DF93EC018B0190E00BC0E92FF0E018
:10087000DE01AE0FBF1F19968C91E058FF4F8083A9
:100880009F5F8F81981790F380E890E060EC70E0B4
:1008900040E750E00E94A204C80160E10E949C036E
:1008A000DF91CF911F910F9108950F931F93CF93D5
:1008B000DF93EC018B0190E00BC0E92FF0E0DE014B
:1008C000AE0FBF1F19968C91E058FF4F80839F5F3A
:1008D0008F81981790F380E890E060EC70E040E73B
:1008E00050E00E947C04C80160E10E949C03DF91FB
:1008F000CF911F910F9108950F931F93CF93DF9383
:100900008C0187B3806A87BB88B3806A88BBEB01A0
:1009100020E030E0FA01E20FF31FD801A20FB31F6D
:1009200080819C9189278F872F5F3F4F21972031AE
:10093000310581F788B38F7588BBDF91CF911F9107
:100940000F910895CF93DF9327B3206A27BB28B375
:10095000206A28BBEC0120E030E0DB01A20FB31FCE
:10096000FA01E20FF31F80819F8589278C932F5F07
:100970003F4F21972031310581F788B38F7588BBB0
:10098000DF91CF9108952F923F924F925F926F9295
:100990007F928F929F92AF92BF92CF92DF92EF920F
:1009A000FF920F931F93CF93DF93EF93FF93B92F92
:1009B000A82FD72FC62FF52FE42FBD9ABF9AC59A1F
:1009C000C79A00E11127C00FD11F20E10D911191AD
:1009D00001270A932A95D1F7C598C798FF91EF91FF
:1009E000DF91CF911F910F91FF90EF90DF90CF900B
:1009F000BF90AF909F908F907F906F905F904F903F
:100A00003F902F90112408952F923F924F925F9222
:100A10006F927F928F929F92AF92BF92CF92DF920E
:100A2000EF92FF920F931F93CF93DF93EF93FF9378
:100A3000A82FB92FC62FD72FE42FF52FBD9ABF9A15
:100A4000C59AC79A00E11127A00FB11F20E10E91AE
:100A50001191012709932A95D1F7C598C798FF915D
:100A6000EF91DF91CF911F910F91FF90EF90DF9069
:100A7000CF90BF90AF909F908F907F906F905F903E
:100A80004F903F902F901124089587B3806A87BBC1
:100A900088B3806A88BB88B38F7588BB0895F89443
:020AA000FFCF86
:100AA2003BBA110011812A4649545F435655542AD4
:100AB20000112233445566778899AABBCCDDEEFF3C
:00000001FF
