:100000000C9424000C9441000C9441000C94410089
:100010000C9441000C9441000C9441000C9441005C
:100020000C9441000C9441000C9441000C9441004C
:100030000C9441000C9441000C9441000C9441003C
:100040000C9441000C94410011241FBECFE5D4E074
:10005000DEBFCDBF10E0A0E6B0E0E6E5FEE002C006
:1000600005900D92AA39B107D9F711E0AAE9B0E0DD
:1000700001C01D92AE36B107E1F70E9443000C9417
:1000800029070C940000BF92CF92DF92EF92FF926B
:100090000F931F9384E291E09093210180932001BC
:1000A0002AEF30E030932301209322010E940202C4
:1000B00080912201909123010E940B020E94C202B2
:1000C00042E0B42E16E630E1C32E20E2D22E92E4B6
:1000D000E92E8AE6F82E07E880912001909121010F
:1000E0000E94EF02982FE0912201F09123018823D2
:1000F000D9F0809124018083809125018183B2828F
:100100001582923029F0933031F0913051F406C0CD
:100110001383C48210C01383D4820DC0F38204837E
:100120000AC0E382148207C08091200190912101CE
:10013000BF010E94CC0080912201909123010E9476
:10014000370280912001909121010E94020280914A
:100150002201909123010E940B02BECFFC018581F8
:10016000861711F021E007C020E08681841709F48A
:1001700021E081E02827822F0895FC0187818617DE
:1001800011F021E007C020E08085841709F421E008
:1001900081E02827822F0895FC01DB0180818C9368
:1001A000818111968C9311978181813C71F48081BA
:1001B0008C9381EE11968C93119781E012968C931B
:1001C0001297838116968C9308958381803809F065
:1001D00085C084818035D1F1813530F4803471F06F
:1001E000823409F077C01EC0803609F453C08136CE
:1001F00009F460C0823509F06DC03CC08581882358
:1002000009F070C08681882309F06CC08781803135
:1002100009F06CC08085803109F068C0CF010E9470
:10022000A40408958581882309F05CC08681882311
:1002300009F058C08781803109F058C0808580312D
:1002400009F054C0CF010E947D0408958581882360
:1002500009F048C08681882309F044C08781803135
:1002600009F044C08085803109F040C0CF010E9470
:100270005604089585818823A9F58681882391F500
:100280008781803199F58085803181F5CF010E9489
:100290002F0408958581882329F58681882311F507
:1002A0008781883019F58085883001F5CF010E945B
:1002B0000804089585818823A9F48681882391F410
:1002C0008781823199F48085883081F4CF010E9442
:1002D000E1030895CD010E941E020895CB010E9402
:1002E00016020895CD010E942E020895CD010E94AC
:1002F0002602089565E16A95F1F7089569E7FBCF55
:100300007F936F935F934F9361E060936D01BE980D
:10031000C698B699FECFB699FCCF882799276FE18A
:10032000EADF22D0000059E0442762E40000000028
:10033000E2DF1AD0470F889470FD0894879561E436
:100340005A95B1F7881F40FD08C06CE4D4DF9927A7
:100350004F915F916F917F9108956CE4CCDFBE9ACD
:10036000C69866EBC8DFD3CF77278894B6990894F0
:10037000791FC0DF8894B6990894791FBBDF8894F1
:10038000B6990894791F769508956F937F9360913D
:100390006D01662329F0B2DFB1DF60E060936D018B
:1003A000C69ABE9AC69867E7A6DF98E07727879532
:1003B00010F0C69802C0C69A739566E79CDF0000ED
:1003C0009A95A9F770FD04C000000000C69804C00B
:1003D0000000C69A0000000060E78DDFC69A67E75C
:1003E0008ADFBE98C6988894B699089430F08795AD
:1003F000B699FECF6AE37FDFD3CF64E77CDF7F91DE
:100400006F910895FC01108211821282108617826A
:10041000138214820895FC011082118282E082838B
:10042000158282E6838386E884830895FC0182E056
:10043000828315828EE6838314820895FC0182E014
:10044000828315828DE6838314820895FC0182E005
:100450008283158287E6838314820895FC0182E0FB
:10046000828315828AE6838380E884830895CF920D
:10047000DF92FF920F931F93DF93CF93CDB7DEB739
:10048000C954D0400FB6F894DEBF0FBECDBF8C016B
:10049000DC0111962C9111973C9112964C91129778
:1004A00027FF1BC039832A834B8316968C918C833C
:1004B000132F1227142718271D83832F0E94C5018D
:1004C0008A810E94C5018B810E94C5018C810E9496
:1004D000C501812F0E94C50146C039832A834B8301
:1004E000632F62276427FC018581A80194E0C92E4F
:1004F000D12CCC0EDD1EA82FB0E09E012A0F3B1F91
:100500002C5F3F4F06C0FA018581F60181936F0190
:1005100068274F5F5F4FC216D306A9F7F801938192
:10052000FE01EA0FFB1F9483F8018481FE01EA0FAC
:10053000FB1F8583892786278683FF246E01089405
:10054000C11CD11C06C0EC0DFD1D80810E94C5019F
:10055000F394EF2DF0E0D80112968C9190E0039681
:100560008E179F0784F7C75BDF4F0FB6F894DEBF87
:100570000FBECDBFCF91DF911F910F91FF90DF9004
:10058000CF9008951F93CF93DF931BE3C6E6D0E08F
:10059000FE018191182780E0E037F807D1F78BE35F
:1005A0000E94C5018AEB0E94C50181E10E94C5013C
:1005B00080E00E94C50181E10E94C50181E80E949E
:1005C000C50189910E94C50180E0C037D807C9F7ED
:1005D000812F0E94C501DF91CF911F9108957F92D5
:1005E0008F929F92AF92BF92CF92DF92EF92FF9243
:1005F0000F931F93DF93CF93CDB7DEB7C954D0408D
:100600000FB6F894DEBF0FBECDBF7C010E94800103
:10061000782E0E948001882E0E948001982E89E405
:10062000891528F400E010E0C92CDD240CC08E01EF
:100630000F5F1F4F68015801A90CB11C17C00E9421
:1006400080010F5F1F4F0C151D05CCF30E94800128
:10065000D7017C9211968C92119712969C9282E00F
:1006600068C00E948001F60181936F01CA14DB0407
:10067000C1F70E948001682FD7017C9211968C925D
:10068000119712969C92982D9725992504C0F801F0
:1006900081918F0198270C151D05C9F78981D70114
:1006A00013968C9313978A8114968C9314978B814D
:1006B00015968C9315978C8116968C931697129697
:1006C0008C911297853011F48D8128C0863040F1CD
:1006D0008D81F70187838E010A5F1F4F40E050E054
:1006E00006C0D8018D918D0180874F5F5F4FD70184
:1006F00017968C911797282F30E0319642175307A1
:1007000084F312968C911297E82FF0E02B5F3F4F05
:100710002E173F072CF4EC0FFD1F808118968C9349
:10072000F7018085813210F083E003C080E09613EA
:1007300081E0C75BDF4F0FB6F894DEBF0FBECDBFC1
:10074000CF91DF911F910F91FF90EF90DF90CF90AD
:10075000BF90AF909F908F907F900895CF93DF933D
:10076000EC0190E00BC0E92FF0E0DE01AE0FBF1FFF
:1007700019968C91E656FF4F80839F5F8F81981763
:1007800090F3DF91CF910895CF93DF93EC016E5FEB
:100790006A8362506D8380E98B831C8290E00BC07A
:1007A000E92FF0E0DE01AE0FBF1FE652FF4F808160
:1007B00016968C939F5F8D81981790F3DF91CF9160
:1007C00008950F931F93CF93DF93EC018B0190E07B
:1007D0000BC0E92FF0E0DE01AE0FBF1F19968C9120
:1007E000E656FF4F80839F5F8F81981790F38AE9C9
:1007F00090E06AED70E042EA50E00E948806C8018D
:1008000068E00E94C403DF91CF911F910F9108957A
:100810000F931F93CF93DF93EC018B0190E00BC0FC
:10082000E92FF0E0DE01AE0FBF1F19968C91E6565E
:10083000FF4F80839F5F8F81981790F38AE990E044
:100840006AED70E040E050E00E948806C80168E070
:100850000E94C403DF91CF911F910F9108950F93D0
:100860001F93CF93DF93EC018B0190E00BC0E92F36
:10087000F0E0DE01AE0FBF1F19968C91E656FF4FD8
:1008800080839F5F8F81981790F38AE990E06AEDEB
:1008900070E040E750E00E945305C80160E10E940B
:1008A000C403DF91CF911F910F9108950F931F9370
:1008B000CF93DF93EC018B0190E00BC0E92FF0E0C8
:1008C000DE01AE0FBF1F19968C91E656FF4F808355
:1008D0009F5F8F81981790F38AE990E06AED70E04E
:1008E00040E750E00E941205C80160E10E94C40385
:1008F000DF91CF911F910F9108950F931F93CF9385
:10090000DF93EC018B0190E00BC0E92FF0E0DE01FA
:10091000AE0FBF1F19968C91E656FF4F80839F5FE5
:100920008F81981790F38AE990E06AED70E040E7D4
:1009300050E00E94F104C80160E10E94C403DF910D
:10094000CF911F910F9108950F931F93CF93DF9332
:10095000EC018B0190E00BC0E92FF0E0DE01AE0F5F
:10096000BF1F19968C91E656FF4F80839F5F8F8142
:10097000981790F38AE990E06AED70E040E750E064
:100980000E94CB04C80160E10E94C403DF91CF91B3
:100990001F910F9108950F931F93CF93DF938C01B5
:1009A00087B3806A87BB88B3806A88BBEB0120E08D
:1009B00030E0FA01E20FF31FD801A20FB31F8081CC
:1009C0009C9189278F872F5F3F4F219720313105D9
:1009D00081F788B38F7588BBDF91CF911F910F91FD
:1009E0000895CF93DF9327B3206A27BB28B3206AEB
:1009F00028BBEC0120E030E0DB01A20FB31FFA01BD
:100A0000E20FF31F80819F8589278C932F5F3F4FD3
:100A100021972031310581F788B38F7588BBDF912D
:100A2000CF9108952F923F924F925F926F927F9253
:100A30008F929F92AF92BF92CF92DF92EF92FF92EE
:100A40000F931F93CF93DF93EF93FF93B92FA82FAB
:100A5000D72FC62FF52FE42FBD9ABF9AC59AC79AF4
:100A600000E11127C00FD11F20E10D911191012745
:100A70000A932A95D1F7C598C798FF91EF91DF9116
:100A8000CF911F910F91FF90EF90DF90CF90BF908B
:100A9000AF909F908F907F906F905F904F903F901E
:100AA0002F90112408952F923F924F925F926F9250
:100AB0007F928F929F92AF92BF92CF92DF92EF92EE
:100AC000FF920F931F93CF93DF93EF93FF93A82F82
:100AD000B92FC62FD72FE42FF52FBD9ABF9AC59AED
:100AE000C79A00E11127A00FB11F20E10E911191CB
:100AF000012709932A95D1F7C598C798FF91EF91DF
:100B0000DF91CF911F910F91FF90EF90DF90CF90E9
:100B1000BF90AF909F908F907F906F905F904F901D
:100B20003F902F9011240895DC01FB0120E08C916F
:100B3000928189278D932F5F31962830C1F70895D0
:100B4000CF93DF93EC0120E0A881EA2FF0E0EF7073
:100B5000F070E657FF4F9081A295AF70B0E0A657B6
:100B6000BF4F8C918295807F9F70892B89932F5FD7
:100B7000283051F7DF91CF910895CF92DF92EF9215
:100B8000FF920F931F93DF93CF93CDB7DEB72897D4
:100B90000FB6F894DEBF0FBECDBF7C01FE013196CB
:100BA000CE0109961192E817F907E1F740E000E05D
:100BB00010E06E010894C11CD11C4F3311F43FE3C7
:100BC0000FC0C8016FE370E00E94020790E0880F39
:100BD000991F880F991F6FE370E00E940207382F5A
:100BE000842F869586958695F701E80FF11D808103
:100BF00090E0242F277002C0959587952A95E2F7FB
:100C00008170232F277001C0880F2A95EAF7369547
:100C100036953695F601E30FF11D2081822B8083F6
:100C20004F5F0C5F1F4F403441F620E030E0AE01D3
:100C30004F5F5F4FF701E20FF31FDA01A20FB31FFF
:100C40008C9180832F5F3F4F2830310599F728968C
:100C50000FB6F894DEBF0FBECDBFCF91DF911F91CD
:100C60000F91FF90EF90DF90CF900895CF93DF9397
:100C7000DC013C9111962C911197EC01FC0190E064
:100C8000828181939F5F9830D9F718963C9318978B
:100C900019962C9319973C9120E099819295990F80
:100CA000907E8881869586958695982B99932F5F5F
:100CB000293099F7932F9295990F907E19968C91E0
:100CC0001997869586958695982BE92FE295EF7072
:100CD000F0E0E657FF4F80818295807F9F70892BDF
:100CE00019968C9319976F5F60FF07C011968C91CE
:100CF0001197805811968C93119766956F70129684
:100D00008C911297862712968C93DF91CF9108953C
:100D1000BF92CF92DF92EF92FF920F931F93DF93D8
:100D2000CF93CDB7DEB764970FB6F894DEBF0FBE92
:100D3000CDBFE62EB72E27B3206A27BB28B3206A83
:100D400028BBDC01FE013B969E012D5E3F4F1796AE
:100D50008C91179781931197E217F307C1F741150B
:100D6000510511F440E850E0DA01FE0131969E0190
:100D7000255F3F4F19968C91199781931197E21730
:100D8000F307C1F7FF248E01055F1F4F6E01089422
:100D9000C11CD11CC801B6010E949405C8010E9463
:100DA000A005C8010E94BD05C6016F2D0E94360630
:100DB000F3948FE1F81671F7C801B6010E9494050B
:100DC000FE0172968E2D9B2D9C01D9019E01265FFE
:100DD0003F4F80818D933197E217F307D1F788B3A6
:100DE0008F7588BB64960FB6F894DEBF0FBECDBF7B
:100DF000CF91DF911F910F91FF90EF90DF90CF90F7
:100E0000BF90089597FB092E07260AD077FD04D0DE
:100E10000CD006D000201AF4709561957F4F08958C
:100E2000F6F7909581959F4F0895AA1BBB1B51E142
:100E300007C0AA1FBB1FA617B70710F0A61BB70B4A
:100E4000881F991F5A95A9F780959095BC01CD01EF
:060E50000895F894FFCFA5
:100E56003BBA110011812A4649545F435655542A1C
:100E660000112233445566778899AABBCCDDEEFF84
:100E7600001122334455667788990C05060B090044
:0A0E86000A0D030E0F080407010215
:00000001FF
